1003630111000170103244212     FABIANO ROGERIO DI SILV55555       GOIANIA                       GO43996347012025020120250327331
11RUA SENADOR JAIME                 00147ASDASF                SETOR CENTRO OE74553380FABIANO ROGERIO DI SILV55555043996347016
5005504249000409271806672     20250123SE551  0139135411P000000003888600000000033710000000006405000000000000000000000000001900N
5405504249000409551  01391354119000015339          000000200000000000337100000000000000000000033710000000579070000000000001900
7520250201202503275339          85395200LED DIAMOND 6500K H16 16V LUM 8000 60W COOLER/REAT/CAUN    000001900071780000000000000
9003630111000170              500000000154000000026100000000700000000075000000019900000007                                   1